:100000000C942A000C9447000C9447000C94470071
:100010000C9447000C9447000C9447000C94470044
:100020000C9447000C9447000C9447000C94470034
:100030000C9447000C9447000C9447000C94470024
:100040000C9447000C9447000C9447000C94470014
:100050000C94470011241FBECFE5D8E0DEBFCDBF12
:1000600010E0A0E6B0E0E0EFF0E002C005900D92F5
:10007000AA36B107D9F710E0AAE6B0E001C01D9298
:10008000AA36B107E1F70E9449000C9476000C945F
:100090000000CF93DF93CDB7DEB72A970FB6F89461
:1000A000DEBF0FBECDBFDE011196E0E6F0E08AE0D4
:1000B00001900D928150E1F78FEF81BB80E020E04D
:1000C000E1E0F0E0EC0FFD1FE80FF11D908192BB25
:1000D0004FEF59E668E1415050406040E1F700C001
:1000E00000008F5F8A3060F3822FEACFF894FFCF51
:0A00F0003F065B4F666D7D077F6FD2
:00000001FF
